{
  "_format": "hh-sol-artifact-1",
  "contractName": "Lottery",
  "sourceName": "contracts/Lottery.sol",
  "abi": [
    {
      "inputs": [],
      "stateMutability": "nonpayable",
      "type": "constructor"
    },
    {
      "inputs": [
        {
          "internalType": "uint256",
          "name": "required",
          "type": "uint256"
        },
        {
          "internalType": "uint256",
          "name": "current",
          "type": "uint256"
        }
      ],
      "name": "NotEnoughParticipants",
      "type": "error"
    },
    {
      "anonymous": false,
      "inputs": [
        {
          "indexed": false,
          "internalType": "address",
          "name": "participant",
          "type": "address"
        },
        {
          "indexed": false,
          "internalType": "uint256",
          "name": "time",
          "type": "uint256"
        }
      ],
      "name": "LotteryParticipant",
      "type": "event"
    },
    {
      "anonymous": false,
      "inputs": [
        {
          "indexed": false,
          "internalType": "uint256",
          "name": "rewardRecieved",
          "type": "uint256"
        },
        {
          "indexed": false,
          "internalType": "address",
          "name": "winner",
          "type": "address"
        },
        {
          "indexed": false,
          "internalType": "uint256",
          "name": "noOfParticipants",
          "type": "uint256"
        }
      ],
      "name": "Winner",
      "type": "event"
    },
    {
      "inputs": [],
      "name": "declareWinner",
      "outputs": [],
      "stateMutability": "payable",
      "type": "function"
    },
    {
      "inputs": [],
      "name": "manager",
      "outputs": [
        {
          "internalType": "address payable",
          "name": "",
          "type": "address"
        }
      ],
      "stateMutability": "view",
      "type": "function"
    },
    {
      "inputs": [],
      "name": "newLottery",
      "outputs": [],
      "stateMutability": "nonpayable",
      "type": "function"
    },
    {
      "inputs": [
        {
          "internalType": "uint256",
          "name": "",
          "type": "uint256"
        }
      ],
      "name": "participants",
      "outputs": [
        {
          "internalType": "address payable",
          "name": "",
          "type": "address"
        }
      ],
      "stateMutability": "view",
      "type": "function"
    },
    {
      "inputs": [],
      "name": "random",
      "outputs": [
        {
          "internalType": "uint256",
          "name": "",
          "type": "uint256"
        }
      ],
      "stateMutability": "view",
      "type": "function"
    },
    {
      "inputs": [],
      "name": "winner",
      "outputs": [
        {
          "internalType": "address payable",
          "name": "",
          "type": "address"
        }
      ],
      "stateMutability": "view",
      "type": "function"
    },
    {
      "stateMutability": "payable",
      "type": "receive"
    }
  ],
  "bytecode": "0x608060405234801561001057600080fd5b50336000806101000a81548173ffffffffffffffffffffffffffffffffffffffff021916908373ffffffffffffffffffffffffffffffffffffffff160217905550610ddc806100606000396000f3fe6080604052600436106100595760003560e01c806314034bd2146101dc57806335c1d349146101e6578063481c6a75146102235780635ec01e4d1461024e578063b1e2cb0314610279578063dfbf53ae14610290576101d7565b366101d757600073ffffffffffffffffffffffffffffffffffffffff16600260009054906101000a900473ffffffffffffffffffffffffffffffffffffffff1673ffffffffffffffffffffffffffffffffffffffff16146100ef576040517f08c379a00000000000000000000000000000000000000000000000000000000081526004016100e6906107ce565b60405180910390fd5b67016345785d8a00003414610139576040517f08c379a000000000000000000000000000000000000000000000000000000000815260040161013090610860565b60405180910390fd5b6001339080600181540180825580915050600190039060005260206000200160009091909190916101000a81548173ffffffffffffffffffffffffffffffffffffffff021916908373ffffffffffffffffffffffffffffffffffffffff1602179055507fa43697b4a92080f23c60f7b14f803d09092394adf9de79ace697cbb8fad22acf33426040516101cd9291906108da565b60405180910390a1005b600080fd5b6101e46102bb565b005b3480156101f257600080fd5b5061020d60048036038101906102089190610934565b61056a565b60405161021a9190610982565b60405180910390f35b34801561022f57600080fd5b506102386105a9565b6040516102459190610982565b60405180910390f35b34801561025a57600080fd5b506102636105cd565b604051610270919061099d565b60405180910390f35b34801561028557600080fd5b5061028e610607565b005b34801561029c57600080fd5b506102a561070d565b6040516102b29190610982565b60405180910390f35b60008054906101000a900473ffffffffffffffffffffffffffffffffffffffff1673ffffffffffffffffffffffffffffffffffffffff163373ffffffffffffffffffffffffffffffffffffffff1614610349576040517f08c379a000000000000000000000000000000000000000000000000000000000815260040161034090610a04565b60405180910390fd5b6004600180549050101561039c5760046001805490506040517f5fdd6f49000000000000000000000000000000000000000000000000000000008152600401610393929190610a69565b60405180910390fd5b60006001805490506103ac6105cd565b6103b69190610ac1565b9050600181815481106103cc576103cb610af2565b5b9060005260206000200160009054906101000a900473ffffffffffffffffffffffffffffffffffffffff16600260006101000a81548173ffffffffffffffffffffffffffffffffffffffff021916908373ffffffffffffffffffffffffffffffffffffffff1602179055506000479050600073ffffffffffffffffffffffffffffffffffffffff16600260009054906101000a900473ffffffffffffffffffffffffffffffffffffffff1673ffffffffffffffffffffffffffffffffffffffff160361049b5761049a610b21565b5b600260009054906101000a900473ffffffffffffffffffffffffffffffffffffffff1673ffffffffffffffffffffffffffffffffffffffff166108fc829081150290604051600060405180830381858888f19350505050158015610503573d6000803e3d6000fd5b507f1c2ae1f7e99dbbbfe25aac964f3889ea68259d88b74709f53037a6fb930bb02a81600260009054906101000a900473ffffffffffffffffffffffffffffffffffffffff1660018054905060405161055e93929190610ba5565b60405180910390a15050565b6001818154811061057a57600080fd5b906000526020600020016000915054906101000a900473ffffffffffffffffffffffffffffffffffffffff1681565b60008054906101000a900473ffffffffffffffffffffffffffffffffffffffff1681565b600042336001805490506040516020016105e993929190610c45565b6040516020818303038152906040528051906020012060001c905090565b60008054906101000a900473ffffffffffffffffffffffffffffffffffffffff1673ffffffffffffffffffffffffffffffffffffffff163373ffffffffffffffffffffffffffffffffffffffff1614610695576040517f08c379a000000000000000000000000000000000000000000000000000000000815260040161068c90610cf4565b60405180910390fd5b600047146106d8576040517f08c379a00000000000000000000000000000000000000000000000000000000081526004016106cf90610d86565b60405180910390fd5b600160006106e69190610733565b600260006101000a81549073ffffffffffffffffffffffffffffffffffffffff0219169055565b600260009054906101000a900473ffffffffffffffffffffffffffffffffffffffff1681565b50805460008255906000526020600020908101906107519190610754565b50565b5b8082111561076d576000816000905550600101610755565b5090565b600082825260208201905092915050565b7f4c6f747465727920416c72656164792046696e69736865640000000000000000600082015250565b60006107b8601883610771565b91506107c382610782565b602082019050919050565b600060208201905081810360008301526107e7816107ab565b9050919050565b7f20302e3120657468657220697320726571756972656420746f2074616b65207060008201527f61727420696e204c6f7474657279000000000000000000000000000000000000602082015250565b600061084a602e83610771565b9150610855826107ee565b604082019050919050565b600060208201905081810360008301526108798161083d565b9050919050565b600073ffffffffffffffffffffffffffffffffffffffff82169050919050565b60006108ab82610880565b9050919050565b6108bb816108a0565b82525050565b6000819050919050565b6108d4816108c1565b82525050565b60006040820190506108ef60008301856108b2565b6108fc60208301846108cb565b9392505050565b600080fd5b610911816108c1565b811461091c57600080fd5b50565b60008135905061092e81610908565b92915050565b60006020828403121561094a57610949610903565b5b60006109588482850161091f565b91505092915050565b600061096c82610880565b9050919050565b61097c81610961565b82525050565b60006020820190506109976000830184610973565b92915050565b60006020820190506109b260008301846108cb565b92915050565b7f4f6e6c79204d616e616765722063616e206465636c617265204c6f7474657279600082015250565b60006109ee602083610771565b91506109f9826109b8565b602082019050919050565b60006020820190508181036000830152610a1d816109e1565b9050919050565b6000819050919050565b6000819050919050565b6000610a53610a4e610a4984610a24565b610a2e565b6108c1565b9050919050565b610a6381610a38565b82525050565b6000604082019050610a7e6000830185610a5a565b610a8b60208301846108cb565b9392505050565b7f4e487b7100000000000000000000000000000000000000000000000000000000600052601260045260246000fd5b6000610acc826108c1565b9150610ad7836108c1565b925082610ae757610ae6610a92565b5b828206905092915050565b7f4e487b7100000000000000000000000000000000000000000000000000000000600052603260045260246000fd5b7f4e487b7100000000000000000000000000000000000000000000000000000000600052600160045260246000fd5b6000610b6b610b66610b6184610880565b610a2e565b610880565b9050919050565b6000610b7d82610b50565b9050919050565b6000610b8f82610b72565b9050919050565b610b9f81610b84565b82525050565b6000606082019050610bba60008301866108cb565b610bc76020830185610b96565b610bd460408301846108cb565b949350505050565b6000819050919050565b610bf7610bf2826108c1565b610bdc565b82525050565b60008160601b9050919050565b6000610c1582610bfd565b9050919050565b6000610c2782610c0a565b9050919050565b610c3f610c3a826108a0565b610c1c565b82525050565b6000610c518286610be6565b602082019150610c618285610c2e565b601482019150610c718284610be6565b602082019150819050949350505050565b7f4f6e6c79204d616e616765722063616e207374617274206e6577204c6f74746560008201527f7279000000000000000000000000000000000000000000000000000000000000602082015250565b6000610cde602283610771565b9150610ce982610c82565b604082019050919050565b60006020820190508181036000830152610d0d81610cd1565b9050919050565b7f4e6577204c6f74746572792063616e206265207374617274656420696620707260008201527f6576696f75732069732046696e69736865640000000000000000000000000000602082015250565b6000610d70603283610771565b9150610d7b82610d14565b604082019050919050565b60006020820190508181036000830152610d9f81610d63565b905091905056fea264697066735822122028852c642722850fe83219c6c66604ab70ed43f46acd1a16681cead4e52705df64736f6c63430008110033",
  "linkReferences": {},
  "deployedLinkReferences": {}
}